:100000000C9459000C9481000C9481000C94810094
:100010000C9481000C9481000C9481000C9481005C
:100020000C9481000C9481000C9481000C9481004C
:100030000C9481000C9481000C9481000C9481003C
:100040000C94C5040C9481000C94A4060C94E00656
:100050000C9481000C9481000C9481000C9481001C
:100060000C9495030C94810000000007000201002D
:100070000003040600000000000000000102040864
:100080001020408001020408102001020408102002
:10009000040404040404040402020202020203032E
:1000A0000303030300000000250028002B00B20218
:1000B0009B0711241FBECFEFD8E0DEBFCDBF11E0FC
:1000C000A0E0B1E0E0EEF1E102C005900D92AE36A5
:1000D000B107D9F712E0AEE6B1E001C01D92AE3D26
:1000E000B107E1F710E0C2EBD0E004C02297FE01B7
:1000F0000E94EA08CE3AD107C9F70E94FB050C948A
:10010000EE080C940000DC01ED91FC910190F0816F
:10011000E02D0994982F92959F708F702AE0929FFE
:10012000800D112408958EE691E00E94760240E849
:1001300055E260E070E087E392E00C941B076F9259
:100140007F928F929F92AF92BF92CF92DF92EF9267
:10015000FF920F931F93CF93DF934C015B01EA0152
:10016000390168E670E08EE691E00E949A0260E054
:1001700070E08EE691E00E9483008EE691E00E949E
:10018000AF0247E050E068E670E08EE691E00E9442
:100190008D028EE691E00E94E3018F770E948A0033
:1001A000F40180838EE691E00E94E3010E948A00C0
:1001B000F50180838EE691E00E94E3018F730E9437
:1001C0008A0088838EE691E00E94E3010E948A0003
:1001D000F30180838EE691E00E94E3010E948A0091
:1001E000F80180838EE691E00E94E3010E948A007C
:1001F000F70180838EE691E00E94E3010E948A006D
:10020000F6018083DF91CF911F910F91FF90EF90C6
:10021000DF90CF90BF90AF909F908F907F906F9026
:100220000895CF92DF92EF92FF920F931F93CF9397
:10023000DF93CDB7DEB727970FB6F894DEBF0FBEBA
:10024000CDBFCC24C394D12CCC0EDD1E92E0E92E80
:10025000F12CEC0EFD1E8E010D5F1F4F9E012C5FD9
:100260003F4FAE014B5F5F4FBE016A5F7F4FCE01D4
:1002700007960E949F004AE050E06D8187E392E07C
:100280000E94BF0860E071E087E392E00E942308CB
:100290008E818A3030F462E071E087E392E00E9460
:1002A00023084AE050E06E8187E392E00E94BF0895
:1002B00060E071E087E392E00E9423088F818A303A
:1002C00030F462E071E087E392E00E9423084AE0A4
:1002D00050E06F8187E392E00E94BF0863E171E024
:1002E00087E392E00E9423084AE050E06B8187E3B5
:1002F00092E00E94BF0864E071E087E392E00E9410
:1003000023084AE050E06A8187E392E00E94BF0838
:1003100064E071E087E392E00E9423084AE050E045
:10032000698187E392E00E94BF0866E071E087E39D
:1003300092E00E9423088C818430B1F030F4823046
:1003400069F078F48130F9F406C0863099F078F0DD
:100350008730C9F412C065E171E011C06CE171E051
:100360000EC063E271E00BC06BE271E008C065E3B0
:1003700071E005C06EE371E002C065E471E087E3FF
:1003800092E00E94420827960FB6F894DEBF0FBE97
:10039000CDBFDF91CF911F910F91FF90EF90DF9034
:1003A000CF9008950E94110168EE73E080E090E024
:1003B0000C94390520919E0130E080919F01281B0B
:1003C0003109C901089580919F0190919E0189177B
:1003D00050F4E82FF0E0E056FE4F208130E08F5FD0
:1003E00080939F0102C02FEF3FEFC9010895E09174
:1003F0009F0180919E01E81730F4F0E0E056FE4F37
:10040000208130E002C02FEF3FEFC9010895089529
:10041000CF92DF92EF92FF920F931F93CF93DF93D0
:100420007C01CB018A0120917A01222391F0EB011A
:100430006B01C40ED51E09C06991D701ED91FC91E5
:100440000190F081E02DC7010995CC15DD05A1F7DC
:1004500003C0642F0E946C03C801DF91CF911F91EC
:100460000F91FF90EF90DF90CF900895CF93DF939F
:100470001F92CDB7DEB7698320917A012223D1F094
:1004800020917B01203240F021E030E0FC013383F9
:10049000228320E030E015C080917C01E82FF0E05D
:1004A000E358FE4F998190838F5F80937C01809306
:1004B0007B0105C061E0CE0101960E946C0321E042
:1004C00030E0C9010F90DF91CF910895FC011382B4
:1004D000128248EE53E060E070E044835583668307
:1004E000778382E591E091838083089510929F0144
:1004F00010929E0110927C0110927B010C94B60226
:10050000862F413208F040E260EA71E00E94D40296
:1005100010929F0180939E01089521E00C94800227
:1005200081E080937A0160939D0110927C0110928A
:100530007B0108950C9490020F93062F21E04091C7
:100540007B016DE771E080919D010E94190310927B
:100550007C0110927B0110927A010F91089561E065
:100560000C949C028EE691E00C9466021092C901F4
:1005700081E08093C7011092C60161E082E10E9490
:10058000C40561E083E10E94C405E9EBF0E08081ED
:100590008E7F808380818D7F808388E48093B80004
:1005A00085E48093BC000895413208F03FC09091EB
:1005B000C9019111FCCF91E09093C9012093C7012B
:1005C0002FEF2093C0011092C501242F21502093BA
:1005D000C4019093C8019091C801880F892B809322
:1005E000C8018091C601813041F41092C60180910A
:1005F000C8018093BB0085EC01C085EE8093BC00F0
:100600008091C9018130E1F38091C501841710F414
:100610004091C5012AEC31E0FB01D90102C08D9166
:1006200081938A2F821B8417D0F301C040E0842F6E
:1006300008950F93413208F046C09091C90191117D
:10064000FCCF92E09093C9010093C7019FEF909374
:10065000C0011092C5014093C401FB016AEC71E036
:10066000DB0102C091919D939A2F961B9417D0F3B2
:100670001092C8019091C801880F892B8093C801FE
:100680008091C601813041F41092C6018091C80169
:100690008093BB0085EC01C085EE8093BC002223D3
:1006A00021F08091C9018230E1F38091C0018F3F38
:1006B00061F08091C001803251F08091C00180339F
:1006C00041F483E007C081E005C080E003C082E020
:1006D00001C084E00F910895613298F42091C9011E
:1006E000243089F46093C201FC018AEE91E0DC01C0
:1006F00002C021912D932A2F281B2617D0F380E0CA
:10070000089581E0089582E0089585ED8093BC000E
:100710008091BC0084FDFCCF1092C901089585EC46
:100720008093BC001092C90108951F920F920FB6DA
:100730000F9211242F933F934F935F936F937F9367
:100740008F939F93AF93BF93EF93FF938091B900E3
:10075000887F803609F49FC058F5883209F45BC061
:1007600090F4803109F452C038F4882309F4F8C0B9
:10077000883009F0F9C04AC0883109F44CC0803291
:1007800009F0F2C05CC0803409F46BC038F48033E7
:1007900009F455C0883309F0E7C054C0803509F426
:1007A00054C0883509F462C0883409F0DDC0DAC06D
:1007B000883909F4CBC0A8F4883709F46CC038F440
:1007C000883609F468C0803709F0CEC064C0883824
:1007D00009F4BCC0803909F464C0803809F0C4C091
:1007E00060C0803B09F48AC038F4803A09F46BC0D9
:1007F000883A09F0B9C082C0803C09F4ABC0883C9B
:1008000009F4A8C0883B09F0AFC08DC08091C80131
:100810008093BB0012C09091C5018091C4019817CC
:1008200088F58091C501E82FF0E0E653FE4F9081F6
:100830009093BB008F5F8093C50185EC88C0809347
:10084000C00190C08093C00156C08091C5019091B5
:10085000BB00E82FF0E0E653FE4F90838F5F80935C
:10086000C5019091C5018091C4016DC08091C50101
:100870009091BB00E82FF0E0E653FE4F90838F5F2E
:100880008093C5018091C70181116CC081E0809384
:10089000C60184EA60C083E08093C9011092C1015F
:1008A000CCCF8091C101803208F050C08091C1014D
:1008B0009091BB00E82FF0E0E25FFD4F90838F5FE7
:1008C0008093C101BACF8091C101803230F4E091B0
:1008D000C101F0E0E25FFD4F10820E94850360914C
:1008E000C101E0910A02F0910B0270E08EE092E00B
:1008F00009951092C1010E948F0336C084E0809355
:10090000C9011092C3011092C201E0910C02F09152
:100910000D0209958091C201811105C081E080938B
:10092000C2011092EA018091C301E82FF0E0E65184
:10093000FE4F90819093BB008F5F8093C301909195
:10094000C3018091C201981708F477CF85E880939E
:10095000BC000AC085EC8093BC001092C90104C0A1
:100960001092C0010E948503FF91EF91BF91AF915A
:100970009F918F917F916F915F914F913F912F91B7
:100980000F900FBE0F901F9018951F920F920FB6E9
:100990000F9211242F933F938F939F93AF93BF9305
:1009A00080912E0290912F02A0913002B0913102DD
:1009B00030913602232F2D5F2D3720F40196A11D93
:1009C000B11D05C0232F2A570296A11DB11D2093EA
:1009D000360280932E0290932F02A0933002B093A0
:1009E00031028091320290913302A0913402B09191
:1009F00035020196A11DB11D8093320290933302FE
:100A0000A0933402B0933502BF91AF919F918F9123
:100A10003F912F910F900FBE0F901F9018950F933D
:100A20001F939FB7F89400913202109133022091E6
:100A300034023091350286B5A89B06C08F3F21F065
:100A40000F5F1F4F2F4F3F4F9FBF322F212F102F70
:100A50000027080F111D211D311D42E0000F111F3D
:100A6000221F331F4A95D1F7B801C9011F910F9179
:100A70000895CF92DF92EF92FF92CF93DF936B01B5
:100A80007C010E940F05EB010EC00E940F056C1B3C
:100A90007D0B683E734038F081E0C81AD108E10848
:100AA000F108C851DC4FC114D104E104F10469F725
:100AB000DF91CF91FF90EF90DF90CF9008957894E1
:100AC00084B5826084BD84B5816084BD85B5826053
:100AD00085BD85B5816085BDEEE6F0E080818160F1
:100AE0008083E1E8F0E010828081826080838081F1
:100AF00081608083E0E8F0E0808181608083E1EBC9
:100B0000F0E0808184608083E0EBF0E080818160B0
:100B10008083EAE7F0E08081846080838081826066
:100B2000808380818160808380818068808310924F
:100B3000C1000895833069F028F48130A1F082303B
:100B400011F514C08630B1F08730C1F08430D9F48B
:100B500004C0809180008F7703C0809180008F7DDA
:100B600080938000089584B58F7702C084B58F7D0F
:100B700084BD08958091B0008F7703C08091B0004C
:100B80008F7D8093B00008950F931F93CF93DF93D1
:100B90001F92CDB7DEB7282F30E0F901E859FF4F9B
:100BA0008491F901E458FF4F1491F901E057FF4F88
:100BB00004910023D1F0882321F069830E949A05D3
:100BC0006981E02FF0E0EE0FFF1FEC55FF4F85919C
:100BD0009491DC019FB7F8948C91611103C010953A
:100BE000812301C0812B8C939FBF0F90DF91CF9108
:100BF0001F910F9108950E945F050E949300C7ED19
:100C0000D6E00E94D2012097E1F30E94D706F9CFE7
:100C1000FC0184859585FC01E05CFF4F20813181DA
:100C2000FC01EE5BFF4F80819181281B390B2F73F4
:100C30003327C9010895FC0184859585FC01E05C9A
:100C4000FF4F40815181FC01EE5BFF4F20813181DC
:100C50004217530741F00190F081E02DE80FF91F92
:100C6000208130E002C02FEF3FEFC9010895FC0161
:100C700084859585FC01E05CFF4F40815181FC013A
:100C8000EE5BFF4F208131814217530781F0A08135
:100C9000B181A80FB91F8C91208131812F5F3F4F07
:100CA0002F73332731832083282F30E002C02FEFAA
:100CB0003FEFC9010895FC0186859785FC01E05C42
:100CC000FF4FDC01AE5BBF4F408151812D913C91C4
:100CD000119742175307C1F70895CF93DF93FC0193
:100CE00086859785DC01A05CBF4F2D913C911197C3
:100CF0002F5F3F4F2F733327EC01CE5BDF4F4881CF
:100D0000598124173507D9F30D90BC91A02DA80F58
:100D1000B91F6C93A685B785A05CBF4F11963C9315
:100D20002E93A689B7892C9181E090E0058C02C0B2
:100D3000880F991F0A94E2F7282B2C9381E090E00A
:100D4000DF91CF91089508951F920F920FB60F92E1
:100D500011242F933F934F938F939F93EF93FF9380
:100D60004091C6008091DA029091DB0201968F7368
:100D700099272091DC023091DD028217930759F008
:100D8000E091DA02F091DB02E656FD4F408390934A
:100D9000DB028093DA02FF91EF919F918F914F9147
:100DA0003F912F910F900FBE0F901F90189587E3E2
:100DB00092E00E940806892B11F00C94A306089576
:100DC0001F920F920FB60F9211242F933F938F9380
:100DD0009F93EF93FF932091960230919702809119
:100DE0009802909199022817390731F48091C10037
:100DF0008F7D8093C10014C0E0919802F091990218
:100E0000EA5AFD4F208180919802909199020196B3
:100E10008F73992790939902809398022093C6002C
:100E2000FF91EF919F918F913F912F910F900FBE66
:100E30000F901F901895CF92DF92EF92FF92CF9371
:100E4000DF93EC016A017B01411581EE58076105D2
:100E50007105F9F0EC89FD8981E090E00E8C02C00B
:100E6000880F991F0A94E2F7808360E079E08DE3B0
:100E700090E0A70196010E94C6082150310941095E
:100E800051095695479537952795211580E13807E3
:100E900098F0EC89FD89108260E874E88EE190E0BA
:100EA000A70196010E94C608215031094109510944
:100EB0005695479537952795E889F9893083EA89CA
:100EC000FB892083EE89FF89408181E090E09C01CD
:100ED0000A8C02C0220F331F0A94E2F7422B408390
:100EE000EE89FF8940819C010B8C02C0220F331FC9
:100EF0000A94E2F7422B4083EE89FF8940819C01EE
:100F00000C8C02C0220F331F0A94E2F7422B40835D
:100F1000EE89FF8920810D8C02C0880F991F0A94E9
:100F2000E2F7809582238083DF91CF91FF90EF904D
:100F3000DF90CF90089510923A021092390288EE15
:100F400093E0A0E0B0E080933B0290933C02A0933A
:100F50003D02B0933E0282E691E090933802809386
:100F600037028AE992E0909344028093430286E537
:100F700092E0909346028093450285EC90E0909336
:100F800048028093470284EC90E090934A02809359
:100F9000490280EC90E090934C0280934B0281ECEC
:100FA00090E090934E0280934D0286EC90E09093F7
:100FB000500280934F0284E08093510283E080933B
:100FC000520287E08093530285E08093540281E0CF
:100FD000809355020895CF92DF92EF92FF920F9384
:100FE0001F93CF93DF936C01EB017A01E60EF71E9E
:100FF00000E010E00BC06991D601ED91FC910190E9
:10100000F081E02DC6010995080F191FCE15DF05E7
:1010100091F7C801DF91CF911F910F91FF90EF9051
:10102000DF90CF900895DB010D900020E9F7AD012E
:1010300041505109461B570BDC01ED91FC91028098
:10104000F381E02D09940C941308DC01ED91FC91DF
:101050000190F081E02D09940F931F93CF93DF93BC
:10106000EC016DE00E9425088C016AE0CE010E942F
:1010700025089C01200F311FC901DF91CF911F91DD
:101080000F9108950F931F93CF93DF93EC010E946C
:1010900013088C01CE010E942C089801280F391FDB
:1010A000C901DF91CF911F910F9108954F925F92E7
:1010B0006F927F929F92AF92BF92CF92DF92EF9208
:1010C000FF920F931F93CF93DF93CDB7DEB7A19716
:1010D0000FB6F894DEBF0FBECDBF5C016A017B0185
:1010E000922E19A281E0821710F08AE0982E8E01CC
:1010F0000F5D1F4F492C512C612C712CC701B6017B
:10110000A30192010E94C6088C2D929E8019112481
:10111000015011098A3014F4805D01C0895CF80126
:10112000808369017A01C114D104E104F10431F72B
:10113000B801C5010E941308A1960FB6F894DEBF4E
:101140000FBECDBFDF91CF911F910F91FF90EF9018
:10115000DF90CF90BF90AF909F907F906F905F9007
:101160004F9008952115310541F4DC01ED91FC917A
:101170000190F081E02D642F09940C9456089A0197
:10118000462F50E060E070E00C94B208A1E21A2E05
:10119000AA1BBB1BFD010DC0AA1FBB1FEE1FFF1F1B
:1011A000A217B307E407F50720F0A21BB30BE40B6B
:1011B000F50B661F771F881F991F1A9469F76095B2
:1011C0007095809590959B01AC01BD01CF0108956C
:1011D000EE0FFF1F0590F491E02D0994F894FFCFD6
:1011E0003A0030002F0020446179206F6620776537
:1011F000656B3A200053756E646179004D6F6E64C3
:1012000061790054756573646179005765646E6532
:101210007364617900546875727364617900467211
:1012200069646179005361747572646179000000CA
:10123000000036020802DA01E301F70107020000AC
:0E12400000006D06EB07080637061B065B066E
:00000001FF
