:100000000C9464000C948C000C948C000C948C0068
:100010000C948C000C948C000C948C000C948C0030
:100020000C948C000C948C000C948C000C948C0020
:100030000C948C000C948C000C948C000C948C0010
:100040000C94E5060C948C000C9437090C947309FD
:100050000C948C000C948C000C948C000C948C00F0
:100060000C947E020C948C0000000007000201003A
:100070000003040600000000000000000102040864
:100080001020408001020408102001020408102002
:10009000040404040404040402020202020203032E
:1000A00003030303000000002300260029000000D2
:1000B0000000250028002B0000000000240027007D
:1000C0002A001B0125022E0A11241FBECFEFD8E003
:1000D000DEBFCDBF11E0A0E0B1E0ECEBF5E102C086
:1000E00005900D92A234B107D9F713E0A2E4B1E074
:1000F00001C01D92A632B107E1F710E0C8ECD0E0D4
:1001000004C02297FE010E94CA0AC23CD107C9F767
:100110000E948E080C94DC0A0C94000004C083EB4F
:1001200091E00E943A0183EB91E00E9431011816A0
:100130001906ACF381E080934201089545E050E058
:1001400060E071E083EB91E00C948E0161E08DE062
:100150000E94F60760E08DE00E942E0862E470E0E5
:1001600083EB91E00E9419026EE970E083EB91E06D
:100170000E9420026EE870E083EB91E00E941B0277
:1001800040E855E260E070E08FE792E00C94AE0941
:1001900060E08DE00E942E0864E670E080E090E070
:1001A0000E946B0761E08DE00C942E08EF92FF92A5
:1001B0000F931F93CF93DF937B010097C9F08C01BE
:1001C000C0E0D0E010C083E491E00E94D406F801C2
:1001D00081938F014C2FBE0182EB91E00E942D0193
:1001E0000E94C8002196CE15DF056CF381E001C0A6
:1001F00080E0DF91CF911F910F91FF90EF900895D4
:1002000064E670E080E090E00E946B07809142011C
:10021000882381F061E08DE00E942E0865E070E0A7
:1002200080E091E00E94D60060E08DE00E942E0800
:10023000109242010895EF920F9383E0E82E04E0BC
:1002400025E031E048E051E06CE071E083E491E0CA
:100250000E94B9030F91EF900895CB01642F0C9485
:10026000CE0A2091E60130E08091E701281B310998
:10027000C90108958091E7019091E601891750F432
:10028000E82FF0E0E851FE4F208130E08F5F80934F
:10029000E70102C02FEF3FEFC9010895E091E701A8
:1002A0008091E601E81730F4F0E0E851FE4F20813C
:1002B00030E002C02FEF3FEFC90108950895E091AB
:1002C000BF01F091C0013097E1F03091E70120913A
:1002D000E6013217B0F040E009C0DC01A20FB31F05
:1002E0005C91D901A851BE4F5C934F5F242F30E041
:1002F0002617370794F31092E7016093E601CB01CC
:1003000009940895E091C101F091C201309729F05C
:100310001092C5011092C40109940895CF92DF9202
:10032000EF92FF920F931F93CF93DF937C01CB014A
:100330008A012091C301222391F0EB016B01C40ECD
:10034000D51E09C06991D701ED91FC910190F08112
:10035000E02DC7010995CC15DD05A1F703C0642F79
:100360000E944B02C801DF91CF911F910F91FF9026
:10037000EF90DF90CF900895CF93DF931F92CDB78A
:10038000DEB769832091C3012223D1F02091C401FB
:10039000203240F021E030E0FC013383228320E072
:1003A00030E015C08091C501E82FF0E0EA53FE4F20
:1003B000998190838F5F8093C5018093C40105C0AC
:1003C00061E0CE0101960E944B0221E030E0C901BC
:1003D0000F90DF91CF910895FC011382128248EEB5
:1003E00053E060E070E044835583668377838CE15B
:1003F00091E09183808308951092E7011092E601C5
:100400001092C5011092C4010C942902CF93DF937E
:10041000EC01862F0E94470282E891E00E94690267
:100420008FE591E00E946402CE01DF91CF910C94A0
:10043000FC010C9406027093C0016093BF01089503
:100440007093C2016093C101089583EB91E00C9415
:10045000EC011092110281E080930F0210920E02C3
:1004600061E082E10E942E0861E083E10E942E0893
:10047000E9EBF0E080818E7F808380818D7F8083B7
:1004800088E48093B80085E48093BC000895880FC9
:100490008093BA000895613298F4209111022430BB
:1004A00089F460930A02FC0182E392E0DC0102C05D
:1004B00021912D932A2F281B2617D0F380E0089531
:1004C00081E0089582E00895909353028093520250
:1004D00008959093550280935402089585ED80937A
:1004E000BC008091BC0084FDFCCF109211020895E5
:1004F00085EC8093BC001092110208951F920F9218
:100500000FB60F9211242F933F934F935F936F93E6
:100510007F938F939F93AF93BF93EF93FF938091BC
:10052000B900887F803609F49FC058F5883209F4F5
:100530005BC090F4803109F452C038F4882309F488
:10054000F8C0883009F0F9C04AC0883109F44CC0BD
:10055000803209F0F2C05CC0803409F46BC038F41A
:10056000803309F455C0883309F0E7C054C08035A2
:1005700009F454C0883509F462C0883409F0DDC03C
:10058000DAC0883909F4CBC0A8F4883709F46CC004
:1005900038F4883609F468C0803709F0CEC064C0EA
:1005A000883809F4BCC0803909F464C0803809F087
:1005B000C4C060C0803B09F48AC038F4803A09F4B2
:1005C0006BC0883A09F0B9C082C0803C09F4ABC066
:1005D000883C09F4A8C0883B09F0AFC08DC0809169
:1005E00010028093BB0012C090910D0280910C020A
:1005F000981788F580910D02E82FF0E0EE5EFD4F30
:1006000090819093BB008F5F80930D0285EC88C032
:100610008093080290C08093080256C080910D021A
:100620009091BB00E82FF0E0EE5EFD4F90838F5F6E
:1006300080930D0290910D0280910C026DC080910B
:100640000D029091BB00E82FF0E0EE5EFD4F90832D
:100650008F5F80930D0280910F0281116CC081E049
:1006600080930E0284EA60C083E0809311021092AE
:100670000902CCCF80910902803208F050C08091ED
:1006800009029091BB00E82FF0E0EA5AFD4F9083F9
:100690008F5F80930902BACF80910902803230F4D3
:1006A000E0910902F0E0EA5AFD4F10820E946E02CA
:1006B00060910902E0915202F091530270E086E5E8
:1006C00092E00995109209020E94780236C084E0F7
:1006D0008093110210920B0210920A02E0915402D0
:1006E000F0915502099580910A02811105C081E0BF
:1006F00080930A021092320280910B02E82FF0E000
:10070000EE5CFD4F90819093BB008F5F80930B0256
:1007100090910B0280910A02981708F477CF85E830
:100720008093BC000AC085EC8093BC00109211023B
:1007300004C0109208020E946E02FF91EF91BF91D7
:10074000AF919F918F917F916F915F914F913F9169
:100750002F910F900FBE0F901F901895862F0C941D
:100760006508862F642F0C942E08862F642F0C9416
:10077000F6074F925F926F927F928F929F92AF9205
:10078000BF92CF92DF92EF920F93CF93DF93EC0162
:100790004B013A01590102960E94DF068CE291E07A
:1007A000998388836E018CE1C80ED11C26018CE3ED
:1007B000480E511CC6010E94DF0686E0C80ED11CFF
:1007C000C414D504B9F7FE01EE59FF4F718260825F
:1007D000FE01EC59FF4FB182A082FE01EA59FF4FA2
:1007E0000083FE01E959FF4FE082FE01E05AFF4F0E
:1007F00091828082FE01E859FF4F8AE090E0918368
:100800008083FE01E659FF4F84EF91E0918380835E
:10081000FE01E359FF4F11821082FE01E45AFF4F9F
:100820001082118212821382C459DF4F1882DF9125
:10083000CF910F91EF90DF90CF90BF90AF909F90AE
:100840008F907F906F905F904F9008952F923F927E
:100850004F925F926F927F928F929F92AF92BF92D0
:10086000CF92DF92EF92FF920F931F93CF93DF937C
:10087000CDB7DEB728970FB6F894DEBF0FBECDBF59
:100880009C01D12C8C010A591F4F7C0182E6E80E95
:10089000F11C15C0F90180819181F701A081B1811E
:1008A000AD0DB11DFC01A080B18042E06C91C90189
:1008B0002F833887F5010995D39438852F81F80166
:1008C0008081D81638F3512CC90189599F4F9A83DA
:1008D000898389010C591F4FC12CD12C7601C394F7
:1008E000F901EA59FF4FFC83EB83C9018E599F4FF1
:1008F0009E838D838BC0A52CB12CF90180819181C1
:10090000F801A081B181AA0DBB1DFC0180809180FE
:1009100041E06C91C9012F833887F40109952F813B
:100920003885F90180819181F801A081B181AA0DFA
:10093000BB1DFC018280938040E06C91C901F401F1
:100940000995D701C601052C04C0880F991FAA1F5D
:10095000BB1F0A94D2F74C011C0120943094412C07
:100960002F81388527C0642C712CED81FE81A081F8
:10097000B181A60DB71DFA01448155816C91C90161
:100980002F833887FA010995F30134962F81388532
:10099000EE0FFF1FE20FF31F892B29F48081918155
:1009A0008829992904C08081918182219321918392
:1009B00080834394EB81FC818081F90140815181E6
:1009C000481688F2F801A081B181AA0DBB1DFA0179
:1009D0008280938041E06C91C9012F833887F401B4
:1009E00009952F813885F90180819181F801A081D5
:1009F000B181AA0DBB1DFC01A080B18040E06C91CB
:100A0000C901F5010995539438852F81E981FA814F
:100A10008081581608F46FCF28960FB6F894DEBF81
:100A20000FBECDBFDF91CF911F910F91FF90EF903F
:100A3000DF90CF90BF90AF909F908F907F906F90FE
:100A40005F904F903F902F900895FC0120E030E0A0
:100A5000858D968D8617970741F02F5F3F4F36960D
:100A60002A303105A9F72FEF3FEFC9010895DC01C6
:100A700026E0629FA00DB11D112490965C934E93C9
:100A80005F9721E091962C939197FC01E459FF4FD9
:100A90002081FC01E359FF4F0190F081E02D2223DA
:100AA00031F0309749F0611107C0DC0102C0309786
:100AB00019F05C968C9109940895CF92DF92FF9281
:100AC0000F931F93CF93DF931F92CDB7DEB76C01C7
:100AD000F62EFC0186E0689FE00DF11D112411A2A5
:100AE000878D90A181309105E9F01CF4892B41F0AC
:100AF0004AC082309105A1F1039709F044C035C086
:100B0000413009F040C041E050E0C6010E94370585
:100B10000E942F07F601E85AFF4F6083718382839A
:100B2000938331C049830E942F07F601E85AFF4F93
:100B30000081118122813381601B710B820B930B29
:100B4000F601E659FF4F0081118120E030E0498134
:100B5000061717072807390718F442E050E007C0C6
:100B6000411111C043E050E002C040E050E06F2D61
:100B7000C6010F90DF91CF911F910F91FF90DF90F1
:100B8000CF900C9437050F90DF91CF911F910F916B
:100B9000FF90DF90CF9008952F923F924F925F92F7
:100BA0006F927F928F929F92AF92BF92CF92DF927D
:100BB000EF92FF920F931F93CF93DF93EC01FC0111
:100BC00040E08FEF9FEF278D30A1232B21F4148E6F
:100BD000968F858F11A24F5F36964A30A1F7412C30
:100BE0006E0126E6C20ED11C5E0187E6A80EB11C7E
:100BF0004E01A0E68A0E911C56C0F801E080F180FB
:100C0000032C02C0F694E7940A94E2F7F1E0EF2295
:100C1000FF24469C30011124630C711CD401ED911A
:100C2000FC91E60DF71D2080B301CE010E94250541
:100C300097FD03C04E2D682F1CC0019621F5EE20B4
:100C400011F180E090E060E070E0FE01E80FF91F34
:100C5000248D211112C026E0269FF001279FF00D60
:100C60001124EC0FFD1F248E768E658E10A2178E38
:100C700041E0CE010E945D0506C06F5F7F4F069682
:100C80006A30710511F7339408C0312C8E01040DC0
:100C9000111D040D111D085F1F4FD5016C903614F6
:100CA00008F4ABCF4394F6018081481670F320E03E
:100CB00030E080E0FE01E20FF31F91A1911181E08D
:100CC0002A5F3F4F2C333105A9F7DF91CF911F9158
:100CD0000F91FF90EF90DF90CF90BF90AF909F90DB
:100CE0008F907F906F905F904F903F902F900895DE
:100CF000CF92DF92EF92FF920F931F93CF93DF93E8
:100D00008C010E942F07E801C45ADF4FC880D980A8
:100D1000EA80FB806C197D098E099F09F801E8596A
:100D2000FF4FC080D180E12CF12CC616D706E80613
:100D3000F90670F4C8010E942604C8010E94CC057F
:100D4000182F0E942F07688379838A839B8301C0B1
:100D500010E0812FDF91CF911F910F91FF90EF90C5
:100D6000DF90CF9008950F931F93CF93DF93EC0103
:100D70008C0104591F4F81E0F8018083CE010E944D
:100D80007806882349F089A1882331F08F8D98A1B6
:100D9000019711F48C8D03C0F801108280E0DF917F
:100DA000CF911F910F910895CF93DF93EC01CE0166
:100DB0000E94B3068823D9F3DF91CF910895FC01F7
:100DC000108214821382158208951F920F920FB61B
:100DD0000F9211242F933F938F939F93AF93BF93C1
:100DE0008091760290917702A0917802B091790279
:100DF00030917E02232F2D5F2D3720F40196A11D07
:100E0000B11D05C0232F2A570296A11DB11D2093A5
:100E10007E028093760290937702A0937802B0933B
:100E2000790280917A0290917B02A0917C02B0912C
:100E30007D020196A11DB11D80937A0290937B02E1
:100E4000A0937C02B0937D02BF91AF919F918F914F
:100E50003F912F910F900FBE0F901F9018950F93F9
:100E60001F938FB7F894009176021091770220912A
:100E70007802309179028FBFB801C9011F910F919B
:100E800008950F931F939FB7F89400917A021091E1
:100E90007B0220917C0230917D0286B5A89B06C022
:100EA0008F3F21F00F5F1F4F2F4F3F4F9FBF322FBC
:100EB000212F102F0027080F111D211D311D42E089
:100EC000000F111F221F331F4A95D1F7B801C90126
:100ED0001F910F910895CF92DF92EF92FF92CF93DF
:100EE000DF936B017C010E944107EB010EC00E9461
:100EF00041076C1B7D0B683E734038F081E0C81AD7
:100F0000D108E108F108C851DC4FC114D104E10453
:100F1000F10469F7DF91CF91FF90EF90DF90CF90D0
:100F20000895789484B5826084BD84B5816084BD61
:100F300085B5826085BD85B5816085BDEEE6F0E052
:100F4000808181608083E1E8F0E0108280818260AE
:100F50008083808181608083E0E8F0E0808181602F
:100F60008083E1EBF0E0808184608083E0EBF0E05F
:100F7000808181608083EAE7F0E080818460808303
:100F800080818260808380818160808380818068AD
:100F900080831092C1000895833069F028F4813075
:100FA000A1F0823011F514C08630B1F08730C1F065
:100FB0008430D9F404C0809180008F7703C0809181
:100FC00080008F7D80938000089584B58F7702C064
:100FD00084B58F7D84BD08958091B0008F7703C064
:100FE0008091B0008F7D8093B0000895CF93DF9300
:100FF00090E0FC01E458FF4F4491FC01E057FF4FA3
:101000008491882341F190E0880F991FFC01E854F6
:10101000FF4F25913491D90182559F4FFC01859155
:101020009491C82FD92F9FB7F8948C91611106C065
:10103000409584238C938881842308C0623041F4D6
:10104000242F209582238C938881842B888302C04F
:10105000842B8C939FBFDF91CF9108950F931F93A3
:10106000CF93DF931F92CDB7DEB7282F30E0F90181
:10107000E859FF4F8491F901E458FF4F1491F901A9
:10108000E057FF4F04910023D1F0882321F06983BA
:101090000E94CC076981E02FF0E0EE0FFF1FE255C0
:1010A000FF4F85919491DC019FB7F8948C91611169
:1010B00003C01095812301C0812B8C939FBF0F909B
:1010C000DF91CF911F910F910895CF93DF93282F38
:1010D00030E0F901E859FF4F8491F901E458FF4FDE
:1010E000D491F901E057FF4FC491CC2389F08111CD
:1010F0000E94CC07EC2FF0E0EE0FFF1FEC55FF4FE6
:1011000085919491DC018C918D2321E030E011F4E4
:1011100020E030E0C901DF91CF9108950E9491074E
:101120000E94A600CAE6D9E00E9400012097E1F3E0
:101130000E946A09F9CFFC0184859585FC01E05C79
:10114000FF4F20813181FC01EE5BFF4F8081918157
:10115000281B390B2F733327C9010895FC0184859F
:101160009585FC01E05CFF4F40815181FC01EE5B05
:10117000FF4F208131814217530741F00190F081E8
:10118000E02DE80FF91F208130E002C02FEF3FEF84
:10119000C9010895FC0184859585FC01E05CFF4F41
:1011A00040815181FC01EE5BFF4F2081318142176C
:1011B000530781F0A081B181A80FB91F8C912081C4
:1011C00031812F5F3F4F2F73332731832083282FA7
:1011D00030E002C02FEF3FEFC9010895FC01868582
:1011E0009785FC01E05CFF4FDC01AE5BBF4F4081A7
:1011F00051812D913C91119742175307C1F70895E2
:10120000CF93DF93FC0186859785DC01A05CBF4FFF
:101210002D913C9111972F5F3F4F2F733327EC0196
:10122000CE5BDF4F4881598124173507D9F30D90E4
:10123000BC91A02DA80FB91F6C93A685B785A05CA3
:10124000BF4F11963C932E93A689B7892C9181E0CC
:1012500090E0058C02C0880F991F0A94E2F7282BB2
:101260002C9381E090E0DF91CF91089508951F9233
:101270000F920FB60F9211242F933F934F938F939A
:101280009F93EF93FF934091C6008091220390912A
:10129000230301968F73992720912403309125030E
:1012A0008217930759F0E0912203F0912303EE5146
:1012B000FD4F40839093230380932203FF91EF918E
:1012C0009F918F914F913F912F910F900FBE0F9053
:1012D0001F9018958FE792E00E949B08892B11F0D0
:1012E0000C94360908951F920F920FB60F92112495
:1012F0002F933F938F939F93EF93FF932091DE0261
:101300003091DF028091E0029091E10228173907C5
:1013100031F48091C1008F7D8093C10014C0E091B1
:10132000E002F091E102E256FD4F20818091E0025F
:101330009091E10201968F7399279093E102809337
:10134000E0022093C600FF91EF919F918F913F9112
:101350002F910F900FBE0F901F901895CF92DF9294
:10136000EF92FF92CF93DF93EC016A017B0141156D
:1013700081EE580761057105F9F0EC89FD8981E07E
:1013800090E00E8C02C0880F991F0A94E2F78083C8
:1013900060E079E08DE390E0A70196010E94A60A43
:1013A000215031094109510956954795379527959F
:1013B000211580E1380798F0EC89FD89108260E8FA
:1013C00074E88EE190E0A70196010E94A60A2150E0
:1013D0003109410951095695479537952795E8896F
:1013E000F9893083EA89FB892083EE89FF8940816E
:1013F00081E090E09C010A8C02C0220F331F0A9406
:10140000E2F7422B4083EE89FF8940819C010B8CDF
:1014100002C0220F331F0A94E2F7422B4083EE8969
:10142000FF8940819C010C8C02C0220F331F0A945B
:10143000E2F7422B4083EE89FF8920810D8C02C0A8
:10144000880F991F0A94E2F7809582238083DF91A9
:10145000CF91FF90EF90DF90CF900895109282028D
:101460001092810288EE93E0A0E0B0E080938302C6
:1014700090938402A0938502B093860286E391E064
:101480009093800280937F0282EE92E090938C0290
:1014900080938B028EE992E090938E0280938D026E
:1014A00085EC90E09093900280938F0284EC90E022
:1014B000909392028093910280EC90E0909394023A
:1014C0008093930281EC90E0909396028093950232
:1014D00086EC90E0909398028093970284E080934A
:1014E000990283E080939A0287E080939B0285E0D3
:1014F00080939C0281E080939D020895CF92DF92B9
:10150000EF92FF920F931F93CF93DF936C01EB0148
:101510007A01E60EF71E00E010E00BC06991D601DB
:10152000ED91FC910190F081E02DC6010995080F25
:10153000191FCE15DF0591F7C801DF91CF911F91DB
:101540000F91FF90EF90DF90CF900895A1E21A2EB7
:10155000AA1BBB1BFD010DC0AA1FBB1FEE1FFF1F57
:10156000A217B307E407F50720F0A21BB30BE40BA7
:10157000F50B661F771F881F991F1A9469F76095EE
:101580007095809590959B01AC01BD01CF010895A8
:10159000EE0FFF1F0590F491E02D0994262FF99985
:1015A000FECF1FBA92BD81BD20BD0FB6F894FA9A46
:0C15B000F99A0FBE01960895F894FFCF41
:1015BC003132333435020304050607083132333433
:1015CC0035363738392A302300000000BC018E0133
:1015DC0031013A014E015E0100000000B503B10378
:1015EC00AE030000000000097E0A9B08CA08AE0882
:0215FC00EE08F7
:00000001FF
